:020000040800F2
:10000000000001209D380008150C0008190C00089C
:100010001D0C0008210C0008250C00080000000041
:10002000000000000000000000000000290C000893
:100030002D0C000800000000310C0008350C0008F1
:10004000E5380008E5380008E5380008E53800081C
:10005000E5380008E5380008E5380008E53800080C
:10006000E5380008E5380008E5380008E5380008FC
:10007000E5380008E5380008E5380008E5380008EC
:10008000E5380008E5380008E5380008E5380008DC
:10009000E5380008E5380008E5380008E5380008CC
:1000A000E5380008E5380008E5380008E5380008BC
:1000B000E5380008E5380008E53800083D0C000880
:1000C000E53800084D0C0008E5380008E538000860
:1000D000E5380008E5380008E5380008E53800088C
:1000E000E5380008E5380008E5380008E53800087C
:1000F000E5380008E5380008E5380008E53800086C
:10010000E5380008E5380008E5380008E53800085B
:100110005D0C00086D0C0008E5380008E5380008A3
:10012000E5380008E5380008E5380008E53800083B
:1001300000000000000000000000000000000000BF
:1001400000000000000000000000000000000000AF
:10015000000000000000000000000000000000009F
:10016000000000000000000000000000000000008F
:10017000000000000000000000000000000000007F
:10018000000000000000000000000000000000006F
:10019000000000000000000000000000000000005F
:1001A000000000000000000000000000000000004F
:1001B000000000000000000000000000000000003F
:1001C000000000000000000000000000000000002F
:1001D000000000000000000000000000000000001F
:0401E0005FF8E0F1F3
:1001E40010B5054C237833B9044B13B10448AFF36D
:1001F40000800123237010BD1404002000000000BF
:1002040044390008084B10B51BB108490848AFF33E
:1002140000800848036803B910BD074B002BFBD0CE
:10022400BDE81040184700BF00000000180400207B
:1002340044390008140400200000000030B597B0D1
:10024400282200210CA803F073FB002407940894CF
:1002540009940A940B9401940294039404940594CD
:10026400069401220C924FF480330D9310920225D0
:10027400139514934FF4E01315930CA801F066F84A
:100284000F230793089509944FF480630A930B9402
:10029400294607A801F0ACFA01954FF440430393B3
:1002A40001A801F083FB17B030BD00BF10B500F00A
:1002B400FFFFFFF7C3FF00F04BF800F0CDF800F0AC
:1002C400F7F800F085F900F09FF900F01DFA00F04E
:1002D4003BFA00F0F5FA00221146134800F024FB23
:1002E40000221146114800F01FFB114C6423082220
:1002F4002146104803F012F90F4800F055F90F4A4F
:100304000146094800F010FB6423082221460C48EA
:1003140003F004F90B4800F047F90B4A014603487F
:1003240000F002FBE1E700BF90040020E404002099
:10033400000000209405002060040020D405002063
:10034400540500203004002038050020704700BF09
:100354002DE9F04188B00024049405940694079490
:10036400264B9A6942F010029A619A6902F01002CF
:100374000092009A9A6942F008029A619A6902F01E
:1003840008020192019A9A6942F004029A619A69F8
:1003940002F004020292029A9A6942F020029A61DF
:1003A4009B6903F020030393039BDFF858802246E4
:1003B4004FF44071404601F00BFD114D22464FF4BD
:1003C4008071284601F004FD4FF440730493012723
:1003D400059706940226079604A9404601F000FCFE
:1003E4004FF48073049305970694079604A928464E
:1003F40001F0F6FB08B0BDE8F08100BF0010024038
:10040400000801400010014010B5044602464FF4B4
:100414000071054801F0DCFC22464FF4807103486A
:1004240001F0D6FC10BD00BF0010014000080140DF
:1004340010B5044602464FF48071054801F0C8FC2B
:1004440022464FF48071034801F0C2FC10BD00BF86
:10045400001001400008014000B585B0002301935D
:10046400029303931048114A026083600373037577
:100474004FF46022C26143600123036100F05EFE19
:1004840008B1FFF763FF0A230193012302930023BA
:10049400039301A9044800F0CFFC08B1FFF756FF0D
:1004A40005B05DF804FB00BF600400200024014097
:1004B40000B585B000230193029303931048114AB9
:1004C40002608360037303754FF46022C26143606A
:1004D4000123036100F032FE08B1FFF737FF0B235D
:1004E4000193012302930023039301A9044800F01C
:1004F400A3FC08B1FFF72AFF05B05DF804FB00BFB9
:10050400300400200028014000B589B00023049382
:1005140005930693079303681F4A93421BD11F4B0D
:100524009A6942F400729A619A6902F40072009224
:10053400009A9A6942F010029A619B6903F01003D1
:100544000193019B012304930323059304A91448F5
:1005540001F046FB1DE0134A93421AD10F4B9A69EE
:1005640042F480629A619A6902F480620292029A69
:100574009A6942F010029A619B6903F01003039395
:10058400039B222304930323059304A9044801F045
:1005940027FB09B05DF804FB002401400010024071
:1005A400001001400028014010B5044600F022FD6F
:1005B4003221204600F082FB204600F0D9FC10F4E2
:1005C400007F03D0204600F033FC10BD002010BD96
:1005D40008B50A480A4B03600A4B43600023836052
:1005E400C3604FF48042026143618361C36103626B
:1005F40002F012F808B1FFF7A9FE08BD900400202C
:1006040000540040A086010008B50A480A4B036064
:100614000A4B436000238360C3604FF4804202614D
:1006240043618361C361036201F0F6FF08B1FFF720
:100634008DFE08BDE404002000580040A08601009F
:1006440010B588B0002304930593069307930368B9
:10065400294A934225D1294CA36943F00803A36195
:10066400A36903F008030093009BC023049312239F
:1006740005930323079304A9214801F0B1FAE36920
:1006840043F40013E361E36903F400130193019B52
:10069400002211461F2001F06BFC1F2001F09AFC80
:1006A40028E0184A934225D1144CA36943F0080367
:1006B400A361A36903F008030293029B4FF4406310
:1006C4000493122305930323079304A90C4801F010
:1006D40087FAE36943F48003E361E36903F4800385
:1006E4000393039B00221146212001F041FC2120A9
:1006F40001F070FC08B010BD00540040001002402E
:10070400000C01400058004008B50C480C4B036035
:100714004FF41653436000238360C36003610C22CB
:1007240042618361C36102F0C7FE08B1FFF70EFEA8
:1007340019220449014802F063FF08BD9405002012
:10074400004C0040D405002008B50C480C4B036055
:100754004FF41653436000238360C36003610C228B
:1007640042618361C36102F0A7FE08B1FFF7EEFDA9
:1007740019220449014802F043FF08BD5405002032
:10078400005000403805002030B58BB0002306939C
:100794000793089309930368384A934231D1384B3D
:1007A400DA6942F40022DA61DA6902F40022019281
:1007B400019A9A6942F010029A619B6903F010034E
:1007C4000293029B4FF4806306930223079303234F
:1007D40009932C4D06A9284601F002FA4FF4006350
:1007E400069300240794089406A9284601F0F8F912
:1007F40022462146342001F0BBFB342001F0EAFB01
:100804003AE0214A934237D11D4BDA6942F480120F
:10081400DA61DA6902F480120392039A9A6942F067
:1008240010029A619A6902F010020492049A9A6979
:1008340042F020029A619B6903F020030593059B13
:100844004FF480530693022307930323099306A9C5
:100854000C4801F0C5F90423069300240794089476
:1008640006A90A4801F0BCF922462146352001F0C8
:100874007FFB352001F0AEFB0BB030BD004C0040D7
:1008840000100240001001400050004000140140DC
:1008940008B5074B834205D119220649184602F0D0
:1008A400AFFE08BD19220449044802F0A9FE08BDA0
:1008B40094050020D40500203805002054050020AC
:1008C400F0B58DB0154D05AC28686968AA68EB6869
:1008D4000FC428696969AA6907C4642000F00CFD83
:1008E400002616E005AB9D190A27029701240194FE
:1008F4000095234600227821094801F05DFF029704
:1009040001940095234600227821064801F054FF03
:1009140026441B2EE6D90DB0F0BD00BF5C3900089B
:1009240090040020E40400202DE9F04F87B0044631
:1009340002238DF8173010238DF8163000238DF81C
:100944001530AB4BA3FB0103C91A03EB51031B097D
:1009540003EB83034FEA4309F2B11146D2780B79D2
:1009640003EB0223A34A82FB0307DB17C3EBA707AE
:10097400BFB2487A8B7A03EB002382FB0308DB17B0
:10098400C3EBA808487C8B7C03EB002382FB031297
:10099400DB17C3EBA20A03E04FF0000AD046574628
:1009A400C84509D9944B9C4203D10120FFF72CFD83
:1009B40002E00120FFF73CFDDFF84CE2AEFB0A3C0D
:1009C4004FEADC0C8D4E06EB0C138D4D05F1A00B9C
:1009D400186859689A68DB68ABE80F000CEB8C0C5C
:1009E4004FEA4C03C3EB0A0306EB031305F1B00C07
:1009F400186859689A68DB68ACE80F00DFF80CC225
:100A0400ACFB073A4FEA5A1A06EB0A1305F5B87B12
:100A1400186859689A68DB68ABE80F00642303FB25
:100A24001A77BFB2AEFB073A4FEADA0A06EB0A13AB
:100A340005F5C07B186859689A68DB68ABE80F0055
:100A44000AEB8A0A4FEA4A03FB1A9BB206EB03132A
:100A540005F5C877186859689A68DB680FC7694B49
:100A6400A3FB083A4FEA9A1A06EB0A1305F51C771A
:100A7400186859689A68DB680FC74FF47A7B0BFBD8
:100A84001A87ACFB07384FEA581806EB081305F52C
:100A9400207A186859689A68DB68AAE80F0064230A
:100AA40003FB187AAEFB0A37FF0806EB071305F5BC
:100AB4002478186859689A68DB68A8E80F0007EB7F
:100AC40087077B00C3EB0A0306EB031305F52877BE
:100AD400186859689A68DB680FC74A4BA3FB093842
:100AE4004FEA981806EB081305F55C7718685968FF
:100AF4009A68DB680FC70BFB1897ACFB073C4FEAFF
:100B04005C1806EB081305F5607C186859689A6848
:100B1400DB68ACE80F00642303FB187CAEFB0C37E6
:100B2400FF0806EB071305F5647E186859689A6890
:100B3400DB68AEE80F0007EB87077B00C3EB0C0311
:100B440006EB031605F5687530687168B268F368DA
:100B54000FC5002646E0A6F1500206AB03F8032DAC
:100B64000A2702970125019500932B46002278213C
:100B7400204601F021FE029701950DF11703009321
:100B84002B4600227821204601F016FE029701959B
:100B94000DF1160300932B4600227821204601F024
:100BA4000BFE002519E07208EB0803EB021106F0B6
:100BB400010205F0070303EBC2020A230293012397
:100BC400019302EB01120E490A440092402278215B
:100BD400204601F0F1FD0135EDB215F0800FE2D0B1
:100BE4000136F6B2072EB6D907B0BDE8F08F00BFC4
:100BF400876118866766666690040020A03900083D
:100C040008000020D34D6210CDCCCCCC1F85EB5115
:100C1400704700BFFEE700BFFEE700BFFEE700BF6E
:100C2400FEE700BF704700BF704700BF704700BFBA
:100C340008B500F04FFB08BD08B5024802F092FA6F
:100C440008BD00BF9004002008B5024802F08AFAEB
:100C540008BD00BFE404002008B5024802F060FDAE
:100C640008BD00BF9405002008B5024802F058FDF5
:100C740008BD00BF5405002082B00E4B9A6942F0B3
:100C840001029A619A6902F001020092009ADA69FB
:100C940042F08052DA61DB6903F080530193019BD7
:100CA400054A536823F0E06343F00073536002B0D5
:100CB400704700BF0010024000000140F0B583B04F
:100CC40005460C460023019300F010FB2B689A683C
:100CD40012F4807F08D0AB6A43F02003AB62002398
:100CE40085F82430012097E006465A6812F4807F84
:100CF4001CD1DB6A13F4700F12D017E0B4F1FF3F7C
:100D04000ED024B100F0F2FA801B844208D2AB6A00
:100D140043F00403AB62002385F8243003207BE016
:100D24002B681B6813F0020FE8D051E03B4B1F689F
:100D3400022000F0C5FEB7FBF0F72B681969384AAA
:100D440011420ED1D96802F15C42114209D11969EC
:100D5400344A114218D1DA68334B1A4216D029208A
:100D64001BE019692F4A114204D1D96802F16E427D
:100D740011420DD019692D4A0A405AB9DA682B4B31
:100D840013404BB1FC2008E0292006E0142004E0C5
:100D9400542002E0FC2000E0542007FB00F714E09C
:100DA400B4F1FF3F0ED024B100F0A0FA801B8442BE
:100DB40008D2AB6A43F00403AB62002385F8243005
:100DC400032029E0019B01330193019B9F42E7D853
:100DD4002B686FF012021A60AB6A43F40073AB62C3
:100DE4002B689B6803F46023B3F5602F0FD12B7B32
:100DF4007BB9AB6A23F48073AB62AB6A13F4805F94
:100E040009D1AB6A43F00103AB62002004E0002087
:100E140002E0002000E0002003B0F0BD1004002038
:100E2400244992249224491292244900499224008C
:100E34000368D86C704700BF70B483B0002301937B
:100E440090F82430012B00F08880012380F82430AE
:100E54004B68062B0ED80668756B03EB8303053BC2
:100E64001F249C4025EA04040A6802FA03F323437E
:100E740073631EE00C2B0ED805682A6B03EB830307
:100E8400233B1F249C4022EA04040A6802FA03F369
:100E940023432B630DE00568EA6A03EB8303413BBC
:100EA4001F249C4022EA04040A6802FA03F3234341
:100EB400EB620B68092B0ED90668F56803EB430354
:100EC4001E3B07249C4025EA04048A6802FA03F3C3
:100ED4002343F3600CE00668356903EB43030724FE
:100EE4009C4025EA04048A6802FA03F3234333612D
:100EF4000B68103B012B26D803681A4A93421CD175
:100F04009A6812F4000F20D19A6842F400029A60A1
:100F14000B68102B1BD1144B1B68144AA2FB032330
:100F24009B0C03EB83035A00019202E0019B013BFB
:100F34000193019B002BF9D10AE0836A43F020035B
:100F44008362012304E0002302E0002300E0002385
:100F5400002280F82420184600E0022003B070BC70
:100F6400704700BF002401401004002083DE1B43AF
:100F7400806A704730B583B00023019303689A6890
:100F840012F0010F2FD19A6842F001029A60174BB8
:100F94001B68174AA2FB03239B0C019302E0019BED
:100FA400013B0193019B002BF9D1044600F09EF90B
:100FB400054611E000F09AF9401B02280CD9A36AF7
:100FC40043F01003A362E36A43F00103E3620023E6
:100FD40084F82430012007E023689B6813F0010F94
:100FE400E8D0002000E0002003B030BD1004002051
:100FF40083DE1B4390F82430012B71D010B50446D6
:10100400012380F82430FFF7B5FF0346002863D19D
:10101400A26A22F4407222F0010242F48072A262B7
:10102400226830498A4205D1A1F58061496811F4EA
:10103400702F0ED1A16A21F48011A162516811F4BC
:10104400806F1CD0A16A21F4405141F48051A16207
:1010540015E0A16A41F48011A16223498A4203D0B8
:1010640001F580618A420AD11F49496811F4806FF1
:1010740005D0A16A21F4405141F48051A162A16AD2
:1010840011F4805F04D0E16A21F00601E16201E01D
:101094000021E162002184F824106FF00201116044
:1010A4002268916801F46021B1F5602F0ED10D49D9
:1010B4008A4205D1A1F58061496811F4702F05D1E8
:1010C400916841F4A0019160184610BD916841F403
:1010D40080119160184610BD002284F8242010BDB0
:1010E40002207047002801400024014038B50368FD
:1010F4009A6812F0010F1ED004469A6822F0010289
:101104009A6000F0F3F805460EE000F0EFF8401B9B
:10111400022809D9A36A43F01003A362E36A43F0E7
:101124000103E362012038BD23689B6813F0010FBB
:10113400EBD1002038BD002038BD00BF002800F0EE
:10114400888070B50446836A23B9C36280F824306A
:10115400FFF7DAF92046FFF7C9FFA36A13F0100F6F
:1011640071D100286FD1A36A23F4885323F00203BA
:1011740043F00203A36263682168374A914206D1AF
:10118400E269B2F5402F03D14FF4002200E0E26996
:101194001343257B43EA4503A268B2F5807F04D05C
:1011A400012A05D14FF4807603E04FF4807600E005
:1011B4000026227D012A0FD135B9A269013A46EAF7
:1011C400423242F4006607E0A26A42F02002A262C0
:1011D400E26A42F00102E2624A6822F4694232435E
:1011E4004A6021688D681D4A2A401A438A60A268B1
:1011F400B2F5807F01D0012A03D12269013A110599
:1012040000E000212568EA6A22F470020A43EA62D7
:1012140022689168124A0A40934208D10023E3628B
:10122400A36A23F0030343F00103A36270BDA36A1E
:1012340023F0120343F01003A362E36A43F00103B3
:10124400E362012070BDA36A43F01003A36201208E
:1012540070BD0120704700BF003C0140FDF7E1FF75
:10126400FE0E1FFF10B504460E4B18784FF47A7328
:10127400B3FBF0F30C4A1068B0FBF3F000F0B8FED7
:1012840058B90F2C0BD8002221464FF0FF3000F044
:101294006FFE064B1C60002010BD012010BD012014
:1012A40010BD00BF0C04002010040020080400201E
:1012B40008B5074A136843F010031360032000F0D5
:1012C40045FE0020FFF7CEFFFFF7D6FC002008BD47
:1012D40000200240034A1368034909780B44136051
:1012E400704700BFF00500200C040020014B186873
:1012F400704700BFF005002038B50446FFF7F6FF3D
:101304000546B4F1FF3F02D0044B1B781C44FFF7A1
:10131400EDFF401B8442FAD838BD00BF0C04002006
:1013240082B0084B1B68084AA2FB03235B0A00FB3C
:1013340003F0019000BF019B5A1E0192002BF9D1CA
:1013440002B0704710040020D34D6210002800F052
:10135400EC8170B582B00446036813F0010F6BD0C2
:10136400A84B5B6803F00C03042B0AD0A54B5B6805
:1013740003F00C03082B0DD1A24B5B6813F4803FE0
:1013840008D0A04B1B6813F4003F55D06368002BB2
:1013940052D1CCE16368B3F5803F05D1994A136813
:1013A40043F48033136026E063B903F1804303F50B
:1013B40004331A6822F480321A601A6822F48022F4
:1013C4001A6018E0B3F5A02F0CD103F18043A3F504
:1013D4003C331A6842F480221A601A6842F480325C
:1013E4001A6008E0874B1A6822F480321A601A687F
:1013F40022F480221A6063687BB1FFF777FF054609
:1014040005E0FFF773FF401B642800F292817D4BD7
:101414001B6813F4003FF4D00EE0FFF767FF0546A6
:1014240005E0FFF763FF401B642800F28481754BDD
:101434001B6813F4003FF4D1236813F0020F50D05B
:10144400704B5B6813F00C0F0AD06E4B5B6803F0B3
:101454000C03082B16D16B4B5B6813F4803F11D13E
:10146400684B1B6813F0020F03D02369012B40F073
:101474006481644A136823F0F803616943EAC10391
:1014840013602EE02369D3B101225F4B1A60FFF78A
:101494002DFF054605E0FFF729FF401B022800F257
:1014A4004E81584B1B6813F0020FF4D0554A136851
:1014B40023F0F803616943EAC103136011E00022D9
:1014C400514B1A60FFF712FF054605E0FFF70EFFC8
:1014D400401B022800F235814A4B1B6813F0020FAF
:1014E400F4D1236813F0080F29D0A369ABB101220A
:1014F400464B1A60FFF7FAFE054605E0FFF7F6FED5
:10150400401B022800F21F813E4B5B6A13F0020F5E
:10151400F4D00120FFF704FF11E000223B4B1A60D6
:10152400FFF7E4FE054605E0FFF7E0FE401B022856
:1015340000F20B81334B5B6A13F0020FF4D1236882
:1015440013F0040F00F08B802E4BDB6913F0805FE7
:101554000BD12C4BDA6942F08052DA61DB6903F07B
:1015640080530193019B012500E00025284B1B6853
:1015740013F4807F13D1264A136843F480731360F5
:10158400FFF7B4FE064605E0FFF7B0FE801B6428B3
:1015940000F2DD801E4B1B6813F4807FF4D0E368F7
:1015A400012B05D1174A136A43F00103136222E0A9
:1015B40063B903F1804303F504331A6A22F001028C
:1015C4001A621A6A22F004021A6214E0052B09D185
:1015D4000C4B1A6A42F004021A621A6A42F00102BF
:1015E4001A6208E0074B1A6A22F001021A621A6AA8
:1015F40022F004021A62E368D3B1FFF777FE0646CD
:1016040010E000BF00100240000042428004424249
:1016140000700040FFF76AFE801B41F28833984255
:1016240000F29780544B1B6A13F0020FF2D010E0C3
:10163400FFF75CFE064607E0FFF758FE801B41F209
:101644008833984200F287804B4B1B6A13F0020FD9
:10165400F2D125B1484AD36923F08053D361E369B9
:10166400002B7AD0444A526802F00C02082A4CD06B
:10167400022B37D10022414B1A60FFF737FE054693
:1016840004E0FFF733FE401B022868D83A4B1B687E
:1016940013F0007FF5D1236AB3F5803F06D13649B4
:1016A4004B6823F40032A36813434B603248436809
:1016B40023F47411236A626A13430B4343600122C7
:1016C4002E4B1A60FFF712FE044604E0FFF70EFEED
:1016D400001B022845D8284B1B6813F0007FF5D067
:1016E400002047E00022254B1A60FFF7FFFD044667
:1016F40004E0FFF7FBFD001B022834D81E4B1B68D7
:1017040013F0007FF5D1002034E0012B2DD01A4BCB
:101714005B6803F48031226A914228D103F4701388
:10172400626A934225D0012024E001207047012001
:1017340020E003201EE003201CE001201AE0032027
:1017440018E0032016E0032014E0032012E0032035
:1017540010E003200EE003200CE000200AE0032048
:1017640008E0032006E0032004E0012002E0012059
:1017740000E0002002B070BD001002406000424250
:1017840030B486B0164D02AC28686968AA68EB6864
:101794000FC42B8AADF80430124B5B6803F00C02C3
:1017A400082A19D1C3F3834206A90A4412F8100C7B
:1017B40013F4803F0CD00B4B5B68C3F340430B44E2
:1017C40013F8142C084B03FB00F0B0FBF2F004E018
:1017D400064B03FB00F000E0034806B030BC704742
:1017E400783900080010024000127A0000093D0018
:1017F400002800F09D8070B50446544B1B6803F02C
:1018040007038B420BD2514A136823F007030B439F
:101814001360136803F00703994240F08B80236838
:1018240013F0020F17D013F0040F04D0484A536882
:1018340043F4E0635360236813F0080F04D0444A70
:10184400536843F4605353604148436823F0F00203
:10185400A368134343600D46236813F0010F2ED091
:101864006268012A05D13A4B1B6813F4003F0DD17D
:1018740062E0022A05D1364B1B6813F0007F05D1C4
:101884005CE0334B1B6813F0020F59D030494B68AE
:1018940023F0030313434B60FFF728FD064606E0DD
:1018A400FFF724FD801B41F2883398424AD8284B25
:1018B4005B6803F00C036268B3EB820FF0D1234B37
:1018C4001B6803F007039D420AD2204A136823F0E1
:1018D40007032B431360136803F007039D4233D1BE
:1018E400236813F0040F06D019494B6823F4E0620F
:1018F400E36813434B60236813F0080F07D0144ABE
:10190400536823F46053216943EAC1035360FFF72A
:1019140037FF0F4B5B68C3F303130E4AD35CD84005
:101924000D4B18600D4B1868FFF79CFC002070BD30
:1019340001207047012070BD012070BD012070BDE1
:10194400012070BD032070BD012070BD0020024045
:1019540000100240403A000810040020080400204F
:10196400014B1868704700BF1004002008B5FFF74A
:10197400F7FF044B5B68C3F30223034AD35CD840EC
:1019840008BD00BF00100240503A000808B5FFF738
:10199400E7FF044B5B68C3F3C223034AD35CD8401C
:1019A40008BD00BF00100240503A000870B582B074
:1019B4000446036813F0010F5CD03E4BDB6913F05F
:1019C400805F0BD13B4BDA6942F08052DA61DB690C
:1019D40003F080530193019B012600E00026364B5F
:1019E4001B6813F4807F12D1334A136843F4807365
:1019F4001360FFF77BFC054604E0FFF777FC401B10
:101A040064284FD82C4B1B6813F4807FF5D0294BE6
:101A14001B6A13F4407321D0626802F4407293424B
:101A24001CD0244A136A23F44070244901250D6014
:101A340000250D60106213F0010F0FD0FFF756FC64
:101A4400054606E0FFF752FC401B41F288339842FA
:101A54002AD8184B1B6A13F0020FF3D015490B6AEE
:101A640023F44072636813430B621EB1CB6923F005
:101A74008053CB61236813F0020F06D00D494B68E5
:101A840023F44042A36813434B60236813F0100F00
:101A94000CD008494B6823F48002636913434B60FC
:101AA400002004E0032002E0032000E0002002B054
:101AB40070BD00BF0010024000700040400442426C
:101AC40070B586B00646414D02AC28686968AA68BC
:101AD400EB680FC42B8AADF80430701E0F2864D84D
:101AE400DFE800F03C586336636363396363636320
:101AF40063636308364B5A681B6813F0807F56D0C3
:101B0400C2F3834306A90B4413F8103C12F4803249
:101B14000ED02F494968C1F3404106A8014411F889
:101B2400140C4AB12B4AB2FBF0F000FB03F004E0C2
:101B3400294800FB03F000E00020254B5B6813F408
:101B4400800F40D14000254BA3FB003040083AE011
:101B5400FFF716FE37E0FFF713FE34E01C4B1B6A59
:101B640040F202321A40B2F5817F22D003F440736E
:101B7400B3F5007F04D1164A526A12F0020F1BD14A
:101B8400B3F5407F1BD1124B1B6813F4003F18D1EF
:101B9400002018E0FFF7FAFE0D4B5B68C3F38133B6
:101BA40001335B00B0FBF3F00DE000200BE00020FC
:101BB40009E04FF4004006E049F6404003E000200D
:101BC40001E04FF2244006B070BD00BF8C3900081C
:101BD4000010024000127A0000093D00ABAAAAAA34
:101BE400F0B583B000263446DEE00122A240134063
:101BF4009A4240F0D8804D68122D2DD00BD8022D7A
:101C040027D003D85DB3012D1ED035E0032D30D08D
:101C1400112D1BD030E0684FBD4220D008D8A7F565
:101C24008017BD421BD007F58037BD4224D116E092
:101C3400624FBD4213D007F58037BD420FD0A7F5E0
:101C44008017BD4218D10AE0CE6815E0CE6804368C
:101C540012E0CE6808360FE0CE680C360CE08D68D2
:101C64004DB1012D02D10261082605E0426108262A
:101C740002E0002600E00426FF2B01D8864601E09E
:101C840000F1040EFF2B01D8A20002E0A4F1080227
:101C94009200DEF800700F25954027EA050506FA44
:101CA40002F22A43CEF800204A6812F0805F7AD00C
:101CB400434A956945F001059561926902F0010274
:101CC4000192019AA708BD1C3E4A52F825E004F08F
:101CD400030292000F2595402EEA050E3A4DA842C4
:101CE40015D005F58065A84213D005F58065A84296
:101CF40011D005F58065A8420FD005F58065A8428E
:101D04000DD005F58065A8420BD105250AE0002514
:101D140008E0012506E0022504E0032502E004258D
:101D240000E0062505FA02F24EEA02020237254DCA
:101D340045F827204A6812F4803F05D005F58065F0
:101D44002A681A432A6004E0204D2A6822EA030222
:101D54002A604A6812F4003F04D01C4D6A681A4392
:101D64006A6004E0194D6A6822EA03026A604A68FC
:101D740012F4801F04D0154DAA681A43AA6004E027
:101D8400124DAA6822EA0302AA604A6812F4001FEC
:101D940004D00E4DEA681343EB6004E00B4DEA688F
:101DA40022EA0303EB6001340B6833FA04F27FF494
:101DB4001CAF03B0F0BD00BF0000211000003110C3
:101DC40000100240000001400008014000040140EE
:101DD4000AB10161704709040161704708B590F8C0
:101DE4002130022B03D004238363012008BD026841
:101DF400136823F00E0313600268136823F00103D1
:101E0400136003684B4A934243D9783A934221D0F2
:101E14001432934220D0143293421FD0143293428E
:101E24001FD0143293421FD0143293421FD0143265
:101E340093421FD002F5627293421ED01432934231
:101E44001DD0143293421CD0143293421CD14FF44F
:101E540080521BE0012219E0102217E04FF4807237
:101E640014E04FF4805211E04FF480320EE04FF44E
:101E740080120BE04FF0807208E0012206E010228D
:101E840004E04FF4807201E04FF480322A4B5A6030
:101E940042E02A4A934221D01432934220D0143291
:101EA40093421FD0143293421FD0143293421FD056
:101EB400143293421FD0143293421FD002F562723F
:101EC40093421ED0143293421DD0143293421CD03C
:101ED400143293421CD14FF480521BE0012219E0CA
:101EE400102217E04FF4807214E04FF4805211E096
:101EF4004FF480320EE04FF480120BE04FF080720A
:101F040008E0012206E0102204E04FF4807201E0B0
:101F14004FF480320A4B5A60012380F821300023A9
:101F240080F82030436B13B19847002008BD00208F
:101F340008BD00BF800002400004024008000240C7
:101F44000000024090F82100704700BF074AD368A0
:101F540023F4E0631B041B0C000200F4E06018434C
:101F640040F0BF6040F40030D060704700ED00E006
:101F740030B4164BDB68C3F30223C3F10704042C0B
:101F840028BF04241D1D062D01D9DD1E00E00025F7
:101F9400012303FA04F4013C2140A940AB40013B76
:101FA4001A400A43002808DB1201D2B200F1604053
:101FB40000F5614080F8002305E000F00F001201F5
:101FC400D2B2034B1A5430BC704700BF00ED00E09E
:101FD40014ED00E0002808DB420900F01F00012393
:101FE40003FA00F0014B43F82200704700E100E0DF
:101FF4000138B0F1807F0AD2064B5860F021064ABE
:1020040082F823100020986007221A60704701208C
:10201400704700BF10E000E000ED00E090F83E30B3
:10202400DBB2402B0ED1036D2BB90268436C03F075
:10203400FE03136170470268436C43F00103DBB293
:10204400136170470369B3F5804F1FD190F83D3099
:10205400DBB2212B05D10268436C03F0FE0313614C
:1020640005E00268436C43F00103DBB21361436B88
:102074000BB9826B02B39B6A13B9836B9B6ADBB1A6
:102084000268536843F4006353607047036D43B9B7
:102094000268436CDB1103F0060343F0F0031361A1
:1020A4007047036D012B07D10268436CDB1103F009
:1020B400060343F0F1031361704700BF0268436CE9
:1020C400DBB21361436B0BB9826B4AB19B6A13B9E0
:1020D400836B9B6A23B10268536843F400635360C3
:1020E400704700BF10B48DB090F83E30DAB2C16AC8
:1020F400046B90F83D30DBB2222B40F0F180036D8D
:102104004BB9402A07D1019303685A6901929B692C
:102114000193019BECE0036D9BB90369B3F5404F58
:102124000FD10023029303685A6902929A690292BA
:10213400029A1A6842F480721A60036D01330365CF
:10214400D6E0438D9BB25BB9039303685A6903924B
:102154009A690392039A1A6842F400721A60BCE006
:10216400438D9BB2012B59D111F5803F22D10268D6
:10217400136823F48063136003685A6812F4006FD1
:102184000CD01A6822F480621A6000230493036856
:102194005A6904929B690493049B9EE00022059271
:1021A4005A6905929A690592059A1A6842F400726E
:1021B4001A6092E008291FD020291DD0122C01D1C9
:1021C400012919D1042909D0022907D0102905D0E1
:1021D4000268136823F48063136004E002681368E0
:1021E40043F4806313600023069303685A690692DC
:1021F4009B690693069B70E00268136823F480636E
:1022040013600023079303685A6907929A69079237
:10221400079A1A6842F400721A605EE0438D9BB21A
:10222400022B39D1042915D0022913D0102911D039
:102234000268136843F4006313600023089303687F
:102244005A6908929A690892089A1A6822F4806274
:102254001A600CE00268136843F48063136000237F
:10226400099303685A6909929B690993099B036856
:102274005A6812F4006F30D011F5803F07D001295D
:1022840005D0082903D0102901D0202925D15A6866
:1022940042F480525A6020E00268136843F4806379
:1022A400136003685A6812F4006F0ED011F5803F72
:1022B40007D0012905D0082903D0102901D02029ED
:1022C40003D15A6842F480525A6000230A93036887
:1022D4005A690A929B690A930A9B0023036507E0E3
:1022E40000230B9303685A690B929B690B930B9B16
:1022F4000DB010BC704700BF438D9BB25BB1036847
:10230400426A12781A61436A01334362438D9BB275
:10231400013B9BB243857047438D9BB25BB1436ADB
:10232400026812691A70436A01334362438D9BB297
:10233400013B9BB24385704703685A6912F4806F6E
:1023440011D06FF480625A6100230363202280F865
:102354003D2080F83E30026C42F00402026480F8B2
:102364003C30012070470020704700BFC36AB3F5BA
:102374002A0F02D10123C3627047C36AB3F12A4F03
:1023840001D10823C3627047F8B506460C461746C8
:102394001D4618E0B5F1FF3F15D0FEF7A7FF069BD9
:1023A400C01A854200D375B900233363202286F80E
:1023B4003D2086F83E30326C42F02002326486F8CA
:1023C4003C300120F8BDC4F30743012B08D1336826
:1023D4005B6924EA03039BB2B3FA83F35B0907E066
:1023E40033689B6924EA03039BB2B3FA83F35B0962
:1023F400BB42CFD00020F8BDF8B504460D461646C2
:102404001F4633E023685A6912F4806F16D01A68A5
:1024140042F400721A6023686FF480625A610023E8
:102424002363202284F83D2084F83E30226C42F05D
:102434000402226484F83C300120F8BDB6F1FF3F69
:1024440014D0FEF753FFC01B864200D376B9002395
:102454002363202284F83D2084F83E30226C42F02D
:102464002002226484F83C300120F8BDC5F3074300
:10247400012B08D123685B6925EA03039BB200336F
:1024840018BF012307E023689B6925EA03039BB275
:10249400003318BF0123002BB4D10020F8BD00BFC6
:1024A40070B504460D4616461BE02046FFF744FF70
:1024B400F0B9B5F1FF3F14D0FEF718FF801B854239
:1024C40000D375B900232363202284F83D2084F8C7
:1024D4003E30226C42F02002226484F83C30012019
:1024E40070BD23685B6913F0800FDED0002070BDDF
:1024F400012070BD2DE9F04184B004460E46174614
:1025040098460B9D0268136843F48073136000952A
:102514000A9B00224FF00111FFF736FF002843D138
:10252400236806F0FE061E612B460A9A24492046BB
:10253400FFF762FF002839D10023039323685A6907
:1025440003929B690393039B2A460A992046FFF74B
:10255400A7FF034648B1236C042B29D122681368D2
:1025640043F400731360012325E0B8F1010F03D194
:102574002268FFB217611EE023683A0A1A612A46EC
:102584000A992046FFF78CFF034648B1236C042BBD
:1025940010D12268136843F40073136001230AE026
:1025A4002268FFB2176106E0012304E0012302E080
:1025B400012300E00123184604B0BDE8F08100BF08
:1025C4000200010070B504460D4616461BE0204685
:1025D400FFF7B2FEF0B9B5F1FF3F14D0FEF786FE67
:1025E400801B854200D375B900232363202284F81D
:1025F4003D2084F83E30226C42F02002226484F8AC
:102604003C30012070BD23685B6913F0040FDED0F9
:10261400002070BD012070BD002800F0BF80F8B517
:10262400044690F83D3013F0FF0F04D1002380F8E6
:102634003C30FEF705F8242384F83D302268136803
:1026440023F001031360FFF791F96268554B9A4236
:1026540005D8554B98428CBF0023012304E0534B0B
:1026640098428CBF00230123002B40F09980504BEB
:10267400A3FB00239B0C21684A6822F03F021A4303
:102684004A6025682A6A22F03F02666845498E42FC
:1026940001D8013308E04FF4967101FB03F3454977
:1026A400A1FB03139B09013313432B622568E969DA
:1026B40021F44F4121F0FF0166683A4B9E420AD84B
:1026C400431E7000B3FBF0F00130C0F30B0004288C
:1026D40038BF042035E0A3685BB9421E06EB460709
:1026E400B2FBF7F20132C2F30B02B2FA82F25209E0
:1026F4000CE0421E06EB860707EB8707B2FBF7F2F6
:102704000132C2F30B02B2FA82F25209C2B953B9CE
:10271400421E06EB4600B2FBF0F00130C0F30B039F
:1027240043F400400DE0421E06EB860606EB8606E7
:10273400B2FBF6F30133C3F30B0343F4404000E070
:1027440001200843E86121680B6823F0C002E069B6
:10275400236A034313430B6021688B6823F4034209
:1027640022F0FF022069E368034313438B6021686E
:10277400CB6823F0FF026069A36903431343CB6072
:102784002268136843F001031360002020642023AF
:1027940084F83D30206384F83E00F8BD0120704782
:1027A4000120F8BDA08601007F841E00FF083D00C3
:1027B40083DE1B43D34D62102DE9F04182B0044601
:1027C4000E4617469846FEF791FD94F83D30DBB26D
:1027D400202B40F0938005460090192301224F4995
:1027E4002046FFF7D1FD002840F08A8094F83C3061
:1027F400012B00F08780012384F83C3023681A6899
:1028040012F0010F03D11A6842F001021A60226823
:10281400136823F400631360212384F83D304023BC
:1028240084F83E3000232364089B6362BDF824309F
:102834006385638D23853A4BE36201950A9B00937C
:1028440043463A4631462046FFF754FE002833D02B
:102854005AE02A460A992046FFF722FE48B1236C23
:10286400042B53D12268136843F4007313600123CB
:102874004FE02368626A12781A61616A4B1C6362D2
:10288400228D013A92B22285638D9BB2013B9BB2A9
:1028940063852368586910F0040F0DD062B14A783B
:1028A4001A61636A01336362238D013B2385638D5F
:1028B4009BB2013B9BB26385238D002BC9D12A4671
:1028C4000A992046FFF77EFE034648B1236C042B89
:1028D4001ED12268136843F400731360012318E0C7
:1028E40021680A6842F400720A60202284F83D20BC
:1028F400002284F83E2084F83C200AE0022308E009
:10290400022306E0022304E0012302E0012300E0A5
:102914000123184602B0BDE8F08100BF0200100098
:102924000000FFFF704700BF704700BF704700BF43
:1029340008B590F83D30DAB2438D9BB2E3B1036839
:10294400416A09781961436A01334362438D9BB23A
:10295400013B9BB24385438D9BB26BB9292A0BD1B2
:102964000268536823F4806353602123036328239C
:1029740080F83D30FFF7DAFF08BD00BF704700BFA5
:1029840008B590F83D30DAB2438D9BB2E3B1436AA7
:10299400016809691970436A01334362438D9BB22C
:1029A400013B9BB24385438D9BB26BB92A2A0BD161
:1029B4000268536823F4806353602223036328234B
:1029C40080F83D30FFF7DAFF08BD00BF704700BF55
:1029D40008B590F83D3003F02803282B17D102687E
:1029E400536823F48063536011F0040F01D0002373
:1029F40000E0012311F0800F01D1828900E0028BF5
:102A0400002180F83C101946FFF7E0FF08BD036879
:102A14006FF002025A61002380F83C3008BD00BF09
:102A2400704700BF704700BF10B590F83D30DBB26F
:102A340090F83E20D2B2C46A018D002938D1212BEE
:102A440036D1082C14D0202C12D014F5803F0FD08E
:102A54000268536823F4E063536011230363002383
:102A640080F83E30202380F83D30FFF75BFF10BD37
:102A74000268536823F4E06353600268136843F404
:102A84000073136000230363202380F83D3090F823
:102A94003E30DBB2402B05D1002380F83E30FFF7F7
:102AA400C1FF10BD002380F83E30FFF73BFF10BD8F
:102AB400212B03D0402A5CD1222B5AD1438D9BB2C7
:102AC4002BB90268536823F48063536010BD90F8F7
:102AD4003E30DBB2402B40D1036D9BB9C36C012B5C
:102AE40007D10268836CDBB21361036D02330365A3
:102AF40010BD0268836CC3F307231361036D0133B4
:102B0400036510BD036D012B07D10268836CDBB232
:102B14001361036D0133036510BD036D022B28D1CE
:102B240090F83D30DBB2222B05D10268136843F4E0
:102B34008073136010BD90F83D30DBB2212B18D1A7
:102B44000368426A12781A61436A01334362438D0F
:102B54009BB2013B9BB2438510BD0368426A127865
:102B64001A61436A01334362438D9BB2013B9BB2BA
:102B7400438510BD08B5C26A90F83D30DBB2212B05
:102B840045D1438D9BB263B10368426A12781A61DE
:102B9400436A01334362438D9BB2013B9BB243853D
:102BA40008BD082A14D0202A12D012F5803F0FD075
:102BB4000268536823F4E063536011230363002322
:102BC40080F83E30202380F83D30FFF7ABFE08BD8F
:102BD4000268536823F4E06353600268136843F4A3
:102BE4000073136000230363202380F83D3090F8C2
:102BF4003E30DBB2402B05D1002380F83E30FFF796
:102C040011FF08BD002380F83E30FFF78BFE08BD9E
:102C1400704700BF08B590F83D30DBB2222B4AD193
:102C2400438D9BB2032B15D9436A026812691A704B
:102C3400436A01334362438D9BB2013B9BB243859C
:102C4400438D9BB2032B36D10268536823F480630F
:102C5400536008BDC26A022A2DD0012B2BD802680A
:102C6400136823F4806313600268536823F4E063F9
:102C74005360436A026812691A70436A01334362FB
:102C8400438D9BB2013B9BB24385202380F83D30AA
:102C940090F83E30DBB2402B06D1002380F83E3062
:102CA4000363FFF7B5FF08BD002380F83E3012230D
:102CB4000363FFF739FE08BD08B5C26A438D9BB2B2
:102CC400042B11D10268536823F480635360436A70
:102CD400026812691A70436A01334362438D9BB2DE
:102CE400013B9BB2438508BD438D9BB2032B1AD194
:102CF40001684B6823F480634B60042A06D0022ADF
:102D040004D00268136823F480631360436A026882
:102D140012691A70436A01334362438D9BB2013BCB
:102D24009BB2438508BD438D9BB2022B4DD1012A32
:102D340001D0102A05D10268136823F4806313605C
:102D440010E0042A01D0022A05D10268136843F472
:102D54008063136006E0102A04D00268136843F409
:102D640000731360436A026812691A70426A531C42
:102D74004362438D9BB2013B9BB2438503681B694D
:102D84005370436A01334362438D9BB2013B9BB250
:102D940043850268536823F440735360202380F80A
:102DA4003D3090F83E30DBB2402B06D1002380F852
:102DB4003E300363FFF72CFF08BD002380F83E304C
:102DC40012230363FFF7B0FD08BD436A026812696A
:102DD4001A70436A01334362438D9BB2013B9BB239
:102DE400438508BD704700BF704700BF10B5406AF7
:102DF40090F83D20416B00238B62816B8B620468E9
:102E0400216821F4806121604385416B4B63816BB0
:102E14004B6301680B6823F001030B6090F83D30AD
:102E2400DBB2602B09D1202380F83D30002380F8E9
:102E34003E300364FFF7D8FF10BDD2B202F028027F
:102E4400282A0FD10268136843F001031360026853
:102E5400136843F48063136000230363282380F81A
:102E64003D3005E0202380F83D30002380F83E30DB
:102E7400FFF7B8FF10BD00BF10B5044690F83D3011
:102E8400DBB290F83E20D2B2102A06D1222B04D114
:102E940001680A6822F400620A6003F02802282A02
:102EA40005D100232363282384F83D300DE02268F4
:102EB400526812F4006F04D1602B02D0202384F8EE
:102EC4003D300023236384F83E3023685A6812F4AB
:102ED400006F3AD05A6822F400625A60636B93F828
:102EE4002120012A12D03B4A5A63606BFEF776FF19
:102EF400002854D02268136823F0010313602023B0
:102F040084F83D30606B436B984748E0A36B314ACB
:102F14005A63A06BFEF762FF002840D023685A6909
:102F240012F0400F05D0626A1B691370636A0133A3
:102F340063622268136823F001031360202384F87A
:102F44003D30A06B436B984729E094F83D20D2B202
:102F5400602A17D1202284F83D20002222645A6975
:102F640012F0400F05D0626A1B691370636A013363
:102F740063622268136823F0010313602046FFF79D
:102F840033FF0CE05A6912F0400F05D0626A1B69E6
:102F94001370636A013363622046FFF723FF94F8DA
:102FA4003D30DBB2226C12F0040F12D0282B10D16A
:102FB4002268536823F4E0635360074BE362002301
:102FC4002363202284F83D2084F83E302046FFF716
:102FD40027FD10BDF12D00080000FFFF30B583B0C0
:102FE400044690F83D50EDB20268536823F4E06360
:102FF40053600023019303685A6901921A6842F0EE
:1030040001021A60019B0268136823F48063136051
:1030140003685A6812F4006F42D0222D01D02A2D81
:103024001FD1A26B1268526892B26285628D92B20D
:103034001AB1226C42F0040222645A6822F400623B
:103044005A60A06BFEF77EFF012829D0A36B434A88
:103054005A63A06BFEF7C2FE10B3A06B436B984794
:103064001EE0426B1268526892B24285428D92B25F
:103074001AB1026C42F0040202645A6822F400623B
:103084005A60606BFEF75EFF012809D0636B334A18
:103094005A63606BFEF7A2FE10B1606B436B9847F6
:1030A400638D9BB233B323685A6912F0040F0AD0BC
:1030B400626A1B691370636A01336362638D9BB236
:1030C400013B9BB2638523685A6912F0400F0AD012
:1030D400626A1B691370636A01336362638D9BB216
:1030E400013B9BB26385638D9BB21BB1236C43F0A0
:1030F40004032364236C1BB12046FFF7BDFE2AE0C2
:103104002A2D07D100232363282384F83D30204649
:10311400FFF734FC94F83D30DBB2282B0CD1104B74
:10312400E36200232363202284F83D2084F83E30A8
:103134002046FFF775FC0EE0236B222B01D0222DD5
:1031440009D100232363202284F83D2084F83E30F3
:103154002046FFF713FC03B030BD00BFF12D00087B
:103164000000FFFF70B5044602685568C66A90F80F
:103174003E30DBB290F83D10102B02D0C8B2402B89
:103184006BD19069536913F001010DD1B6F52A0F83
:1031940004D0B6F12A4F03D1012602E0012600E053
:1031A4000026002E40F0A88049B115F4007F06D017
:1031B4002046FFF7DBF82046FEF730FF70BD13F022
:1031C400080F06D015F4007F03D02046FEF776FFE3
:1031D40070BD13F0020F06D015F4007F03D0204613
:1031E400FEF780FF70BD10F0040F1BD0526812F47C
:1031F400006F40F0818013F0800F09D015F4806FC8
:1032040006D013F0040F03D12046FFF70DFC70BD68
:1032140013F0040F70D015F4007F6DD02046FFF733
:10322400A9FC70BD526812F4006F65D113F0400F11
:1032340009D015F4806F06D013F0040F03D1204693
:10324400FFF7E8FC70BD13F0040F55D015F4007FB0
:1032540052D02046FFF730FD70BD236C13B1536983
:10326400002101E09169536913F0020F09D015F4AC
:10327400007F06D0236C03B191692046FFF7A8FBB9
:1032840070BD13F0100F06D015F4007F03D0204654
:10329400FFF7A4FE70BD212801D0292816D113F010
:1032A400800F09D015F4806F06D013F0040F03D1FA
:1032B4002046FFF73DFB70BD13F0040F1CD015F43E
:1032C400007F19D02046FFF717F870BD13F0400FA8
:1032D40009D015F4806F06D013F0040F03D12046F3
:1032E400FFF74EFB70BD13F0040F05D015F4007FFB
:1032F40002D02046FFF710F870BD00BF0268D36803
:1033040023F49073D3600268536923F0010353617B
:10331400202380F83A30704790F83930DBB2212B03
:103324002BD18368B3F5805F0FD1036A02681B88D1
:10333400C3F30803536003691BB9036A02330362CE
:1033440009E0036A0133036205E00268036A591C59
:1033540001621B785360C38C9BB2013B9BB2C38454
:103364006BB90268D36823F08003D3600268D36822
:1033740043F04003D36000207047022070470020D0
:10338400704700BF10B5044601680B6923F440522E
:10339400C36813430B618168036919434369194383
:1033A4000068C26822F4B05323F00C030B43C360DB
:1033B40021684B6923F44072A36913434B6122686B
:1033C400214B9A421FD1FEF7E1FA216800EB8000FD
:1033D40000EB800063689B00B0FBF3F01B4BA3FB86
:1033E40000246409642202FB140212013232A3FB9A
:1033F40002235B0903F0F00202EB041403F00F0351
:1034040023448B6010BDFEF7B1FA216800EB800005
:1034140000EB800063689B00B0FBF3F00B4BA3FB55
:1034240000246409642202FB140212013232A3FB59
:1034340002235B0903F0F00202EB041403F00F0310
:1034440023448B6010BD00BF003801401F85EB5141
:103454002DE9F04105460F4616469846069C1EE0A7
:10346400B4F1FF3F1BD02CB1FDF740FFC8EB0000C7
:10347400844214D22A68D36823F4D073D3602A68B0
:10348400536923F001035361202385F8393085F80B
:103494003A30002385F838300320BDE8F0812B68EA
:1034A4001B6837EA03030CBF01230023B342D7D0C0
:1034B4000020BDE8F08100BF68B310B5044690F861
:1034C400393013F0FF0F04D1002380F83830FDF7B2
:1034D4005BF9242384F839302268D36823F4005339
:1034E400D3602046FFF74EFF2268136923F490430C
:1034F40013612268536923F02A0353612268D36855
:1035040043F40053D3600020E063202384F839306F
:1035140084F83A3010BD0120704700BF2DE9F04116
:1035240082B01E4690F83930DBB2202B56D10446C7
:103534000D469046002953D0002A53D090F83830D5
:10354400012B51D0012380F838300023C363212399
:1035540080F83930FDF7CAFE0746A4F82480A4F8A1
:10356400268027E0E38C9BB2013B9BB2E384A368F3
:10357400B3F5805F12D100963B460022802120469D
:10358400FFF766FF90BB22682B88C3F308035360E0
:1035940023690BB902350DE001350BE000963B467B
:1035A400002280212046FFF753FF08BB23682A78B6
:1035B4005A600135E38C9BB2002BD3D100963B4675
:1035C400002240212046FFF743FF034690B9202202
:1035D40084F83920002284F838200CE002230AE021
:1035E400012308E0012306E0022304E0032302E0B0
:1035F400032300E00323184602B0BDE8F08100BFB6
:1036040090F83A30DBB2202B20D109B312B390F8F2
:103614003830012B20D081628285C2850023C363A8
:10362400222280F83A2080F838300168CA6842F4CF
:103634008072CA6001684A6942F001024A61016805
:10364400CA6842F02002CA601846704702207047D8
:10365400012070470120704702207047704700BF67
:1036640008B50168CB6823F04003CB60202380F8C1
:103674003930FFF7F3FF002008BD00BF08B590F80C
:103684003A30DBB2222B44D18368B3F5805F13D187
:10369400826A036943B903685B68C3F30803138050
:1036A400836A0233836218E003685B68DBB21380C9
:1036B400836A0133836210E0036933B9836A5A1C55
:1036C4008262026852681A7007E0826A531C83623D
:1036D40003685B6803F07F031370C38D9BB2013BE7
:1036E4009BB2C385BBB90268D36823F02003D360BF
:1036F4000268D36823F48073D3600268536923F0AB
:1037040001035361202380F83A30FDF7C1F800200B
:1037140008BD022008BD002008BD00BF704700BFDF
:1037240010B5044602681368D168526913F00F009B
:1037340009D113F0200F06D011F0200F03D020463A
:10374400FFF79CFF10BD002862D012F0010202D1E5
:1037540011F4907F5CD013F0010F06D011F4807F38
:1037640003D0E06B40F00100E06313F0040F04D0D9
:103774001AB1E06B40F00200E06313F0020F04D0D2
:103784001AB1E06B40F00400E06313F0080F04D0BA
:103794001AB1E26B42F00802E263E26B002A4AD0FB
:1037A40013F0200F05D011F0200F02D02046FFF7B0
:1037B40065FF23685B6903F04003E26B12F0080FB6
:1037C40000D1FBB12046FFF799FD23685A6912F036
:1037D400400F13D05A6922F040025A61636B4BB117
:1037E400154A5A63606BFEF7F9FA20B3606B436BBA
:1037F400984710BD2046FFF791FF10BD2046FFF704
:103804008DFF10BD2046FFF789FF0023E36310BD41
:1038140013F0800F06D011F0800F03D02046FFF77D
:103824007BFD10BD13F0400F05D011F0400F02D006
:103834002046FFF715FF10BD4138000808B5406A5F
:103844000023C385C384FFF769FF08BD0F4B1A68C3
:1038540042F001021A6059680D4A0A405A601A6817
:1038640022F0847222F480321A601A6822F48022D0
:103874001A605A6822F4FE025A604FF41F029A60DA
:103884004FF00062034B9A60704700BF0010024083
:103894000000FFF800ED00E0002103E00B4B5B5853
:1038A400435004310A480B4B42189A42F6D30A4A51
:1038B40002E0002342F8043B084B9A42F9D3FFF795
:1038C400C5FF00F00FF8FCF7F1FC7047603A000800
:1038D400000000201404002014040020F40500203B
:1038E400FEE700000E4B70B51E460E4C0025E41A90
:1038F400A410A54204D056F8253098470135F8E7BE
:1039040000F01EF8084B094C1E46E41AA4100025CA
:10391400A54204D056F8253098470135F8E770BD24
:10392400583A0008583A0008583A00085C3A000827
:1039340003460244934202D003F8011BFAE770479E
:10394400F8B500BFF8BC08BC9E467047F8B500BF88
:08395400F8BC08BC9E46704758
:10395C00AE2010B0C802104081FFA1A6A83FA4D38E
:10396C0000D5F0D922DA12DB208D14AF0203040546
:10397C00060708090A0B0C0D0E0F101001020000AF
:10398C0002030405060708090A0B0C0D0E0F101094
:10399C000102000000E010080810E000000F1020E9
:1039AC0020100F0000001010F80000000000202074
:1039BC003F202000007008080808F0000030282480
:1039CC0022213000003008080888700000182021DF
:1039DC0021221C000000804030F800000006052465
:1039EC00243F242400F88888880808000019202027
:1039FC0020110E0000E0108888900000000F1120AC
:103A0C0020201F0000180808886818000000003EDD
:103A1C00010000000070880808887000001C22213A
:103A2C0021221C0000F008080810E00000011222FE
:103A3C0022110F000000000000000000010203042E
:0C3A4C0006070809000000000102030446
:043A58000902000857
:043A5C00E501000878
:103A600001040000000A700D0000000000000000CA
:103A70000000000000000000E01008080810E0004E
:103A80000F10202020100F0008F808000008F80888
:103A9000001F202020201F00180808F80808180020
:103AA0000000203F20000000000000000000000097
:103AB0000000000000000000000000C0C000000086
:103AC0000000003030000000000000000000000096
:103AD00000000000000000000000C038E00000000E
:103AE000203C230202273820C0300808080838008C
:103AF000071820202010080000000000000000002F
:103B0000000000000000000000E010080810E000C5
:103B1000000F102020100F0000E010080810E00037
:103B2000000F102020100F0008F808000008F80807
:103B3000203F210101213F20008080808080800083
:103B40000021302C22213000000000000000000085
:103B50000000000000000000000000000000000065
:103B60000000000000000000000000000000000055
:103B700000000000000000000878880000C8380835
:103B8000000007380E010000E01008080810E000EF
:103B90000F10202020100F0008F80800000000007F
:103BA000203F202020203000000000000000000006
:103BB0000000000000000000000000C0C000000085
:103BC0000000003030000000000000000000000095
:103BD000000000000000000000E010080810E000F5
:103BE000000F102020100F0000E010080810E00067
:103BF000000F102020100F0000E010080810E00057
:103C0000000F102020100F00000000000000000036
:103C100000000000000000000000000000000000A4
:103C200000000000000000000878880000C8380884
:103C3000000007380E010000000000000000000036
:103C40000000000000000000000000000000000074
:103C50000000000000000000000000000000000064
:103C60000000000000000000000000000000000054
:103C7000000000000000000008F808080808F00034
:103C8000203F210101010000E01008080810E000B9
:103C90000F10202020100F0008F800F800F808008E
:103CA00000033E013E030000000000000000000091
:103CB0000000000000000000000000C0C000000084
:103CC0000000003030000000000000000000000094
:103CD000000000000000000000E010080810E000F4
:103CE000000F102020100F0000E010080810E00066
:103CF000000F102020100F0000E010080810E00056
:103D0000000F102020100F0000E010080810E00045
:103D1000000F102020100F00000000000000000025
:103D2000000000000000000008F800F800F808009B
:103D300000033E013E030000000000000000000000
:103D40000000000000000000000000000000000073
:103D50000000000000000000000000000000000063
:103D60000000000000000000000000000000000053
:103D700000000000000000000070880808083800FB
:103D80000038202121221C0008F88888E80810004B
:103D9000203F202023201800180808F808081800E1
:103DA0000000203F20000000000000000000000094
:103DB0000000000000000000000000C0C000000083
:103DC0000000003030000000000000000000000093
:103DD000000000000000000000E010080810E000F3
:103DE000000F102020100F0000E010080810E00065
:103DF000000F102020100F0000E010080810E00055
:103E0000000F102020100F0000E010080810E00044
:103E1000000F102020100F00000000000000000024
:103E2000000000000000000008F800F800F808009A
:103E300000033E013E0300000000000000000000FF
:103E40000000000000000000000000000000000072
:103E50000000000000000000000000000000000062
:103E60000000000000000000100000000100000041
:043E70000024F40036
:040000050800389D1A
:00000001FF
